S00B00004C43442E7372656346
S11300000C9434000C9449000C9449000C9449005D
S11300100C9449000C9449000C9449000C94490038
S11300200C9449000C9449000C9449000C94490028
S11300300C9449000C9449000C9449000C94490018
S11300400C9449000C9449000C9449000C94490008
S11300500C9449000C9449000C9449000C944900F8
S11300600C9449000C94490011241FBECFEFD8E032
S1130070DEBFCDBF11E0A0E0B1E0E4EFF1E002C0EB
S113008005900D92AA31B107D9F70E94D5000C94BE
S1130090F8000C9400009BB19F70282F207F922BB6
S11300A09BB99BB19E7F9BB99BB192609BB90000A9
S11300B09BB19D7F9BB932E43A95F1F700C02BB117
S11300C030E1839FC0011124922F9F70892B8BB93B
S11300D08BB182608BB900008BB18D7F8BB983EFBC
S11300E091E00197F1F700C0000008959BB19F7063
S11300F0282F207F922B9BB99BB191609BB99BB118
S113010092609BB900009BB19D7F9BB932E43A9504
S1130110F1F700C02BB130E1839FC0011124922F6D
S11301209F70892B8BB98BB182608BB900008BB126
S11301308D7F8BB983EF91E00197F1F700C0000048
S113014008958FEF8AB987E893E10197F1F700C02A
S1130150000082E00E944B0088E20E944B008CE089
S11301600E944B0086E00E944B0081E00E944B00FD
S113017083EF91E00197F1F700C0000008950F9319
S11301801F93CF93DF938C01C0E0D0E003C00E94A3
S113019076002196F801EC0FFD1F80818111F7CFC5
S11301A0DF91CF911F910F9108950E94A10080E8E3
S11301B00E944B0080E091E00E94BF002FE38DE09D
S11301C093E0215080409040E1F700C0000080ECB3
S11301D00E944B008EE091E00E94BF002FE38DE06F
S11301E093E0215080409040E1F700C00000DFCF51
S10701F0F894FFCFAD
S11301F448656C6C6F2C20576F726C6421004154F9
S10D02046D65676133323850000065
S9030000FC
